:100000000C9434000C9477000C9451000C94510023
:100010000C9451000C9451000C9451000C9451001C
:100020000C9451000C9451000C9451000C9451000C
:100030000C9451000C9451000C9451000C945100FC
:100040000C9451000C9451000C9451000C945100EC
:100050000C9451000C9451000C9451000C945100DC
:100060000C9451000C94510011241FBECFEFD8E026
:10007000DEBFCDBF11E0A0E0B1E0E4E9F1E002C0F5
:1000800005900D92A230B107D9F721E0A2E0B1E0CE
:1000900001C01D92A430B207E1F70E948D000C94BC
:1000A000C8000C940000E1E8F0E08081816080836A
:1000B0008AB188628AB9A0E8B0E08C91816A8C9399
:1000C000808188608083089552985A9AE9E6F0E02A
:1000D000808182608083E89A08959093890080935C
:1000E0008800089590938B0080938A0008951F9252
:1000F0000F920FB60F9211248F939F9380918800D7
:100100009091890090938B0080938A009F918F91AA
:100110000F900FBE0F901F9018950E9453000E94E1
:100120006400789421E08091020190910301909302
:10013000890080938800809100018823D1F080910C
:100140000201909103018C3F934050F48091020191
:10015000909103010196909303018093020102C0E4
:10016000109200018FED9EE20197F1F700C00000B0
:10017000DACF8091020190910301892B31F08091B7
:100180000201909103010197E6CF20930001EACF8D
:04019000F894FFCF11
:02019400010068
:00000001FF
