:100000000C9434000C9446000C9446000C9446006A
:100010000C9446000C946E000C9446000C94460020
:100020000C9446000C9446000C9446000C94460038
:100030000C9446000C9446000C9446000C94460028
:100040000C948D000C9446000C9446000C944600D1
:100050000C9446000C9446000C9446000C94460008
:100060000C9446000C94460011241FBECFEFD8E03C
:10007000DEBFCDBF21E0A0E0B1E001C01D92A23003
:10008000B207E1F70E94BE000C94C9000C94000076
:1000900052985A9AE8E6F0E0808184608083EDE629
:1000A000F0E080818460808308959093C500809300
:1000B000C40088E18093C10086E08093C200089567
:1000C0009091C00095FFFCCF8093C600089514BCAA
:1000D00085E085BD81E080936E0008951F920F92A8
:1000E0000FB60F9211248F939F934A990FC080915E
:1000F00001018F5F8093010180910101843031F40F
:1001000085B190E2892785B9109201019F918F9165
:100110000F900FBE0F901F9018951F920F920FB661
:100120000F9211242F933F934F935F936F937F937D
:100130008F939F93AF93BF93EF93FF9380910001B1
:100140008F5F80930001809100018C3931F48091A0
:1001500000010E94600010920001FF91EF91BF9199
:10016000AF919F918F917F916F915F914F913F914F
:100170002F910F900FBE0F901F901895259A0E94F7
:10018000480087E690E00E9455000E94670078943E
:06019000FFCFF894FFCF41
:00000001FF
